:020000040000FA
:020000000328D3
:040002000034003492
:0A000600831203138501831603170C
:100010008801890183160313850186018701880100
:10002000890100308700FF308800031383128501A7
:100030008601870188018901C101C6010030A00045
:1000400035280510013086008514A2238510A223CF
:100050000C3086008514A2238510A2233C30860034
:100060008514A2238510A223080021205C2273227C
:10007000902249223E205122672090201921411CC4
:100080003E284008A4001921411C43284008A5002F
:100090001921411C48284008A6001921411C4D285F
:1000A0004008A7001921411C52284008A800192126
:1000B000411C57284008A9001921411C5C28400810
:1000C000B0001921411C61284008B1000800192125
:1000D000411C67284008B2001921411C6C284008C7
:1000E000B3001921411C71284008B4001921411C9A
:1000F00076284008B5001921411C7B284008B6002D
:100100001921411C80284008B7001921411C85286D
:100110004008B8001921411C8A284008B90008008D
:100120002408C0003208C006401C40181621C01C1C
:10013000C0181621401D40191621C01DC0191621D6
:100140002508C0003308C006401C40181621C01CFA
:10015000C0181621401D40191621C01DC0191621B6
:100160002608C0003408C006401C40181621C01CD8
:10017000C0181621401D40191621C01DC019162196
:100180002708C0003508C006401C40181621C01CB6
:10019000C0181621401D40191621C01DC019162176
:1001A0002808C0003608C006401C40181621C01C94
:1001B000C0181621401D40191621C01DC019162156
:1001C0002908C0003708C006401C40181621C01C72
:1001D000C0181621401D40191621C01DC019162136
:1001E0003008C0003808C006401C40181621C01C4A
:1001F000C0181621401D40191621C01DC019162116
:100200003108C0003908C006401C40181621C01C27
:10021000C0181621401D40191621C01DC0191621F5
:10022000C01D1321080021201E2308002120B9220F
:100230000800411007140818392188188A21081964
:10024000DB218819482207108714081854218818C0
:10025000A5210819F62188192C22871007150818DE
:100260006F218818C0210819112288194722071107
:1002700008000130C000313086009D23461C4F2904
:1002800089230510A223450886009D230514A22377
:100290002A3086009D23C50A0000000000000000EF
:1002A00041140818512908000230C000323086007D
:1002B0009D23461C6A2989230510A2234508860030
:1002C0009D230514A2232A3086009D23C50A000021
:1002D000000000000000411408186C2908000330D9
:1002E000C000333086009D23461C852989230510D4
:1002F000A223450886009D230514A2232A308600E8
:100300009D23C50A000000000000000041140818E9
:10031000872908000430C000343086009D23461C25
:10032000A02989230510A223450886009D230514D2
:10033000A2232A3086009D23C50A00000000000089
:10034000000041148818A22908000530C00035308B
:1003500086009D23461CBB2989230510A22345083E
:1003600086009D230514A2232A3086009D23C50AFA
:10037000000000000000000041148818BD2908009A
:100380000630C000363086009D23461CD6298923BE
:100390000510A223450886009D230514A2232A30B8
:1003A00086009D23C50A00000000000000004114E3
:1003B0008818D82908000730C000373086009D23F0
:1003C000461CF12989230510A223450886009D2398
:1003D0000514A2232A3086009D23C50A00000000D0
:1003E0000000000041140819F32908000830C0007B
:1003F000383086009D23461C0C2A89230510A22331
:10040000450886009D230514A2232A3086009D23DB
:10041000C50A0000000000000000411408190E2A5F
:1004200008000930C000393086009D23461C272A69
:1004300089230510A223450886009D230514A223C5
:100440002A3086009D23C50A00000000000000003D
:1004500041140819292A08000030C00030308600F5
:100460009D23461C422A89230510A22345088600A5
:100470009D230514A2232A3086009D23C50A00006F
:1004800000000000000041148819442A08000800F8
:1004900008000510A223C73086009D230514A2235F
:1004A00008000510A223D030C500450886009D2312
:1004B0000514A223461408000510A22386308600E6
:1004C0009D230514A2234C3086009D234F308600C7
:1004D0009D23473086009D23493086009D234E3062
:1004E00086009D2308000510A223C03086009D23AE
:1004F0000514A223433086009D234C3086009D23A3
:10050000413086009D23563086009D23453086006D
:100510009D23203086009D233A3086009D230800CD
:100520000510A223903086009D230514A22343309A
:1005300086009D234F3086009D234E3086009D23EC
:10054000543086009D23523086009D234130860022
:100550009D23533086009D23453086009D234E30D9
:1005600086009D23413086009D233A3086009D23DE
:1005700008000510A223833086009D230514A223C2
:10058000503086009D234F3086009D234C308600DE
:100590009D23493086009D23433086009D234930AA
:1005A00086009D23413086009D23203086009D23B8
:1005B000453086009D234E3086009D2320308600E6
:1005C0009D230510A223C53086009D230514A22378
:1005D000433086009D23413086009D234D308600A8
:1005E0009D23493086009D234E3086009D234F3049
:1005F00086009D23203086009D230510A223D53040
:1006000086009D230514A223433086009D234F308E
:1006100086009D23523086009D23523086009D2304
:10062000453086009D234C3086009D234530860052
:100630009D230715881D192B071108000510A223FB
:10064000833086009D230514A223423086009D231B
:10065000493086009D23453086009D234E3086001C
:100660009D23563086009D23453086009D234E30C5
:1006700086009D23493086009D23443086009D23BB
:100680004F3086009D23203086009D230510A22335
:10069000C33086009D230514A223493086009D2384
:1006A0004E3086009D23493086009D2343308600CE
:1006B0009D23493086009D23413086009D234E3086
:1006C00086009D23443086009D234F3086009D2365
:1006D0000510A223D43086009D230514A223533095
:1006E00086009D23493086009D23533086009D233C
:1006F000543086009D23453086009D234D30860072
:100700009D23413086009D230715881D842B0711EA
:10071000080000000C30A100A10B8C2B3130C2006E
:1007200000006530C30000002E30C400C40B962BBF
:10073000C30B932BC20B902B08008514A2238510AA
:10074000A2230800A2010A30A3005030A200A20B8D
:08075000A72BA30BA52B080049
:02400E00F42C90
:02401000FF3F70
:00000001FF
